:020000040800F2
:1000000000000220113F0008CD2F0008CF2F00086C
:10001000D12F0008D32F0008D52F000800000000C2
:10002000000000000000000000000000010C0008BB
:10003000D72F000800000000A10C0008E50200080E
:10004000613F0008613F0008613F0008613F000810
:10005000613F0008613F0008613F0008613F000800
:10006000613F0008613F0008613F0008613F0008F0
:10007000613F0008613F0008613F0008613F0008E0
:10008000613F0008613F0008613F0008613F0008D0
:10009000613F0008613F0008613F0008613F0008C0
:1000A000613F0008613F0008613F0008613F0008B0
:1000B000613F0008613F0008613F0008613F0008A0
:1000C000613F0008613F0008613F0008613F000890
:1000D000613F0008613F0008613F0008613F000880
:1000E000D92F0008613F0008613F0008613F000808
:1000F000613F0008613F0008613F0008613F000860
:10010000613F0008613F0008613F0008613F00084F
:10011000613F0008613F0008613F0008E52F0008CB
:10012000613F0008613F0008613F0008613F00082F
:10013000613F00080000000000000000613F00086F
:10014000613F0008613F0008613F0008613F00080F
:10015000613F0008613F0008613F0008613F0008FF
:10016000613F0008613F0008613F0008613F0008EF
:10017000613F0008613F0008613F00080000000087
:1001800000000000613F00080000000000000000C7
:10019000613F00080000000000000000613F00080F
:1001A000000000000000000000000000613F0008A7
:1001B000613F0008613F0008613F0008613F00089F
:0401C000613F000893
:1001D00001F0FF01102A2BDB10F0070F08D010F8F8
:1001E000013B013A8B422DD010F0070F42B3F6D1FC
:1001F000F0B441EA012141EA014122F007047FF015
:1002000000070023F0E80256083C85EA010586EA6B
:10021000010685FA47F5A3FA87F586FA47F6A5FAA7
:1002200087F68EB9EED1F0BC01F0FF0102F00702B3
:1002300032B110F8013B013A83EA010313B1F8D15E
:100240000020704701387047002D06BF354603383F
:10025000073815F0010F07D1013015F4807F02BF78
:10026000013015F4C03F0130F0BC0138704700BFC9
:1002700053B94AB9002908BF00281CBF4FF0FF310D
:100280004FF0FF3000F00CB8ADF1080C6DE904CE72
:1002900004F06CFBDDF804E0DDE9022304B07047F4
:1002A000704700BF10B5054C237833B9044B13B128
:1002B0000448AFF300800123237010BD60000020CC
:1002C00000000000644C000808B5034B1BB1034953
:1002D0000348AFF3008008BD000000006400002068
:1002E000644C000808B54FF0E0231B6903F08EFB57
:1002F000012800D108BD00F005FDFBE7EFF3058301
:100300002BB9064B186828B901221A6070476FF0A4
:10031000050070474FF0FF30704700BFC009002054
:10032000EFF3058373B90A4B1B68012B0DD110B590
:100330000024084BDC77064B02221A6003F0B2F867
:10034000204610BD6FF0050070474FF0FF3070473A
:10035000C009002000ED00E0F0B587B0002405944E
:10036000EFF305840CBB00B3002A35D01568936900
:100370002BB11E46013B372B02D9002016E0182670
:10038000536813F0010F40D154698CB14FEA940CBB
:10039000936833B1D768B7F5D07F02D3176907B137
:1003A00084B943B14FF0FF330BB3059807B0F0BDEC
:1003B0004FF0800CECE7D368A3B91369ABB14FF0F1
:1003C000FF33F1E70293019700960B4662462946F8
:1003D00002F0F8FF0590E8E71546002318264FF0D5
:1003E000800CE1E74FF0FF33DEE70023DCE705ABED
:1003F000019300960B461FFA8CF2294603F01FF872
:100400000128D2D000230593CFE70020CEE708B51E
:10041000EFF3058333B908B9002008BD03F0AEF946
:100420000020FAE76FF00500F7E70000034B0360D8
:10043000034B0B6080231360704700BF200800202F
:1004400020060020034B0360034B0B604FF48073C6
:1004500013607047800400207C000020124A12F0D4
:10046000070F1ED0D11D21F00701C1F570531344B1
:100470000A460E480260002141601344083B23F005
:1004800007030B48036059601960991A51601360A3
:10049000084B1960084B1960084B4FF000421A6076
:1004A00070474FF47053E4E7E4090020DC090020B2
:1004B000D8090020D0090020D4090020C409002058
:1004C000164B1A461B688342FBD3516802EB010CA2
:1004D000844509D0416800EB010C634509D00360F5
:1004E000904219D010607047406801445160104636
:1004F000F0E710B40A4C2468A3420BD05B6819449F
:10050000416013681B680360904200D010605DF882
:10051000044B70470460F7E7704700BFDC09002018
:10052000D809002038B5044603F012F8384B1B6890
:10053000B3B1384B1B681C4250D1002C50D004F191
:10054000080214F0070F02D022F007020832002A36
:1005500055D0314B1B68934253D330490C6804E0AB
:10056000FFF77CFFE5E721461C466368934202D211
:100570002368002BF7D1264B1B68A34243D00D689C
:10058000083523680B6063689B1A102B10D9A018DC
:1005900010F0070F08D04FF0500383F31188BFF31A
:1005A0006F8FBFF34F8FFEE743606260FFF788FFF6
:1005B000626819490B689B1A0B60194909688B42DC
:1005C00001D217490B60134B1B6813436360002370
:1005D0002360144A13680133136002E0002500E031
:1005E000002503F04FF815F0070F0ED04FF0500321
:1005F00083F31188BFF36F8FBFF34F8FFEE70025A2
:10060000EFE70025EDE70025EBE7284638BD00BF02
:10061000D8090020C4090020D4090020DC090020EA
:10062000D0090020CC090020002834D038B5044679
:10063000A0F1080550F8043C174A1268134208D18B
:100640004FF0500383F31188BFF36F8FBFF34F8FC9
:10065000FEE750F8081C41B14FF0500383F31188B6
:10066000BFF36F8FBFF34F8FFEE723EA020340F81B
:10067000043C02F06DFF54F8041C084A13680B4454
:1006800013602846FFF71CFF054A13680133136007
:1006900002F0F8FF38BD7047C4090020D4090020DB
:1006A000C809002000B585B0ADF80E000123009305
:1006B00002230DF10E027C21024801F07BFB05B004
:1006C0005DF804FBE445002008B50002FFF7EAFFEF
:1006D00008BD08B540F07000FFF7F6FF08BD08B58B
:1006E0000120FFF7F1FF022000F072FF08BD0000BB
:1006F00084B008B50DF1080C8CE80F005422614657
:100700001C4803F0E3FC3820FFF7DEFF012000F077
:100710005FFF3920FFF7D8FF012000F059FF1420B8
:10072000FFF7D2FF012000F053FF0C20FFF7D1FFAD
:10073000012000F04DFF5E20FFF7C6FF012000F012
:1007400047FF6B20FFF7C0FFC82000F041FF0C20DF
:10075000FFF7BAFF012000F03BFFFFF7C0FF0620C4
:10076000FFF7B2FF012000F033FFBDE8084004B0FE
:10077000704700BFE445002008B5000240F040008B
:10078000FFF790FF08BD08B58001C0B2084460F0D3
:100790007F00C0B2FFF798FF08BD38B505460024BA
:1007A00006E0FFF7E9FF012000F012FF0134E4B298
:1007B000285D0028F5D138BD00F1080343604FF0F3
:1007C000FF328260C360036100230360704700232F
:1007D0000361704743684B609A688A605160996012
:1007E0000861036801330360704730B40D68B5F1E8
:1007F000FF3F11D000F108031C465B681A68AA424B
:10080000FAD963684B6099608C6061600861036825
:100810000133036030BC70470469F2E70369416843
:1008200082688A60416851605A68824206D000221C
:1008300002611A68013A1A601868704782685A6043
:10084000F5E7000070B58AB005AD00240594069464
:100850000794089409940194264B1A6B42F0040201
:100860001A631A6B02F004020192019A02941A6B45
:1008700042F080021A631A6B02F080020292029A1E
:1008800003941A6B42F001021A631A6B02F0010220
:100890000392039A04941A6B42F002021A631B6BD0
:1008A00003F002030493049B134E2246202130469A
:1008B00000F0FAFF4FF4005305934FF4041306932E
:1008C000079429460D4800F0FFFE202305930123DD
:1008D0000693079408942946304600F0F5FE224618
:1008E0000521282000F0DCFE282000F0E9FE0AB0F7
:1008F00070BD00BF00380240000002400008024006
:1009000008B50120FFF783FDFBE7000030B597B085
:10091000134C442204F11001684603F0D7FB94E81D
:100920000F00FFF7E5FE00210846FFF72CFFFFF759
:10093000D6FE01210B4802F090F90A4B1B685D6A54
:10094000FFF7CDFE12AC2A460749204603F00AFB0A
:100950002046FFF722FF4FF47A70FFF758FDECE7CF
:10096000D0460020884600207C4C000808B502686C
:10097000034B9A4200D008BD00F018FEFBE700BF11
:100980000014004072B6FEE708B50A480A4B03603F
:100990000A4B436000238360C3604FF480420261CE
:1009A00043618361C361036201F026F900B908BDA8
:1009B000FFF7E8FFD046002000540040A086010069
:1009C00008B50A480A4B03604FF4E1334360002343
:1009D0008360C36003610C2242618361C36102F0E2
:1009E000C5FA00B908BDFFF7CDFF00BF40460020A3
:1009F0000044004010B58CB003AC242200212046F6
:100A000003F0D2FA00230193029311484FF0804281
:100A10000260436083604FF0FF32C2600361836114
:100A200003230393012305930993214602F0AEF8B3
:100A300048B900230193029301A9054802F074F913
:100A400018B90CB010BDFFF79DFFFFF79BFF00BF6B
:100A50008846002010B594B007AC3422002120460F
:100A600003F0A2FA002302930393049305930693E1
:100A700000931F4A116C41F080511164126C02F016
:100A800080520092009A01931A490A6822F4404267
:100A900042F480420A600A6802F440420192019ADC
:100AA0000222079201210A9110210B910D920E93BF
:100AB0000F914FF4A8731093042311931292139281
:100AC000204601F0B5FC78B90F230293022103916F
:100AD000002304934FF480520592069302A801F07C
:100AE000EBFA18B914B010BDFFF74CFFFFF74AFF3F
:100AF000003802400070004008B500F03DFDFFF7EF
:100B0000A9FFFFF79FFEFFF73FFFFFF759FFFFF732
:100B100071FFFFF7F3FB084A00210848FFF71CFCB0
:100B2000074B1860074A00210748FFF715FC074BE1
:100B30001860FFF7F5FBFEE7D84C00080109000834
:100B40003C460020B44C00080D090008384600203F
:100B500082B0002301930D4B1B68B3F1FF3F08D017
:100B60004FF0500383F31188BFF36F8FBFF34F8FA4
:100B7000FEE74FF0500383F31188BFF36F8FBFF38D
:100B80004F8F019B002BFCD002B07047000000206B
:100B900008480068006880F308884FF0000080F380
:100BA000148862B661B6BFF34F8FBFF36F8F00DF5B
:100BB00000BF000008ED00E0DFF80C00016841F420
:100BC000700101607047000088ED00E04FF0807315
:100BD00040F8043C21F0010140F8081C054B40F8A6
:100BE0000C3C40F8202C6FF0020340F8243C4438C1
:100BF000704700BF510B000800000000000000001B
:100C0000074B19680868B0E8F04F80F30988BFF314
:100C10006F8F4FF0000080F311887047AFF30080B2
:100C2000B84C00204FF0500383F31188BFF36F8F4F
:100C3000BFF34F8F0B4A136801331360012B00D0B1
:100C400070474FF0E023D3F8043D13F0FF0FF7D0C7
:100C50004FF0500383F31188BFF36F8FBFF34F8FB3
:100C6000FEE700BF00000020094B1B6843B94FF0AE
:100C7000500383F31188BFF36F8FBFF34F8FFEE7ED
:100C8000013B034A13600BB983F31188704700BF1F
:100C90000000002000000000000000000000000034
:100CA000EFF30980BFF36F8F154B1A681EF0100F1A
:100CB00008BF20ED108A20E9F04F10602DE90900EF
:100CC0004FF0500080F31188BFF34F8FBFF36F8F49
:100CD00002F07AFD4FF0000080F3118809BC19681A
:100CE0000868B0E8F04F1EF0100F08BFB0EC108A93
:100CF00080F30988BFF36F8F704700BFAFF30080A8
:100D0000B84C002008B54FF0500383F31188BFF3AF
:100D10006F8FBFF34F8F02F029FC28B14FF0E02313
:100D20004FF08052C3F8042D002383F3118808BDCF
:100D30004FF0E022002313619361054B1B680549C6
:100D4000A1FB03139B09013B536107231361704708
:100D50000C000020D34D62104FF0E023D3F8002D9B
:100D60003D4B9A421CD04FF0E023D3F8002D3B4B73
:100D70009A421ED030B583B0394B1A78D2B2019264
:100D8000FF221A701B78DBB28DF803309DF8033018
:100D900003F05003334A1370334B07221A601BE0F1
:100DA0004FF0500383F31188BFF36F8FBFF34F8F62
:100DB000FEE74FF0500383F31188BFF36F8FBFF34B
:100DC0004F8FFEE7284A1368013B13609DF80330FC
:100DD0005B00DBB28DF803309DF8033013F0800F19
:100DE000F0D1214B1B68032B08D04FF0500383F345
:100DF0001188BFF36F8FBFF34F8FFEE71B021A4AB4
:100E0000136003F4E0631360019BDBB2144A1370B8
:100E10004FF0E024D4F8203D43F47003C4F8203DA3
:100E2000D4F8203D43F07043C4F8203DFFF780FF25
:100E300000250E4B1D60FFF7BFFED4F8343F43F092
:100E40004043C4F8343FFFF7A3FE02F0BDFCFFF7B8
:100E50007FFE284603B030BD71C20F4170C20F4102
:100E600000E400E028470020244700200000002084
:100E7000EFF305830F2B0ED9114A9A5C114B1B78A7
:100E80009A4208D24FF0500383F31188BFF36F8F5B
:100E9000BFF34F8FFEE74FF0E023D3F80C3D03F490
:100EA000E063094A1268934208D94FF0500383F374
:100EB0001188BFF36F8FBFF34F8FFEE7704700BFFE
:100EC000F0E300E0284700202447002010B5044646
:100ED000FFF7A8FEA26BE36B9A4204D00024FFF751
:100EE000C3FE204610BD0124F9E710B50446FFF704
:100EF00099FEA36B23B90124FFF7B6FE204610BD6F
:100F00000024F9E770B504461546866B026C5AB9A1
:100F100003681BB100200136A66370BD806802F033
:100F200085FD0023A360F6E76DB9406803F0CEF8B5
:100F30006368226C13446360A268934219D32368E8
:100F400063602846E7E7C06803F0C0F8E368226CF6
:100F500051429B1AE3602268934202D2A3680B4479
:100F6000E360022D01D00020D5E726B1013E00202C
:100F7000D1E72846CFE70020CDE70346026C6AB1EF
:100F800010B50846D9681144D9609C68A14201D3C4
:100F90001968D960D96803F099F810BD704738B561
:100FA0000546FFF73FFE95F8454064B201E0013C7D
:100FB00064B2002C0ADD6B6A43B105F1240002F033
:100FC00089FC0028F3D002F01BFDF0E7FF2385F831
:100FD0004530FFF749FEFFF725FE95F8444064B21F
:100FE00001E0013C64B2002C0ADD2B6943B105F13C
:100FF000100002F06FFC0028F3D002F001FDF0E7D2
:10100000FF2385F84430FFF72FFE38BD38B5E0B137
:101010000D460446FFF706FE2368E26B216C01FBD8
:101020000230A0600020A0636360013A02FB01333C
:10103000E360FF2384F8443084F84530FDB9236928
:1010400063B9FFF711FE012038BD4FF0500383F361
:101050001188BFF36F8FBFF34F8FFEE704F11000CD
:1010600002F038FC0028ECD04FF0E0234FF0805223
:10107000C3F8042DBFF34F8FBFF36F8FE1E704F187
:101080001000FFF799FB04F12400FFF795FBD8E768
:1010900038B51D46049C0B4649B92460E0632364BF
:1010A00001212046FFF7B2FF84F84C5038BD226082
:1010B000F4E740B94FF0500383F31188BFF36F8F0B
:1010C000BFF34F8FFEE710B584B01C46844653B182
:1010D00092B189B94FF0500383F31188BFF36F8F3A
:1010E000BFF34F8FFEE74FF0500383F31188BFF338
:1010F0006F8FBFF34F8FFEE76AB150230393039BBB
:10110000502B13D04FF0500383F31188BFF36F8F30
:10111000BFF34F8FFEE70029EFD04FF0500383F36A
:101120001188BFF36F8FBFF34F8FFEE7039B01233F
:1011300084F8463000949DF818306046FFF7A8FF09
:10114000204604B010BDF0B585B0019288B10F46BD
:101150001D460446B1B1022D20D1E36B012B1DD0F9
:101160004FF0500383F31188BFF36F8FBFF34F8F9E
:10117000FEE74FF0500383F31188BFF36F8FBFF387
:101180004F8FFEE7036C002BE5D04FF0500383F345
:101190001188BFF36F8FBFF34F8FFEE702F036FC6D
:1011A000064658B9019B002B48D04FF0500383F3FB
:1011B0001188BFF36F8FBFF34F8FFEE700263DE02E
:1011C0002A4639462046FFF79DFE636A7BB948B13F
:1011D0004FF0E0234FF08052C3F8042DBFF34F8F40
:1011E000BFF36F8FFFF740FD012005B0F0BD04F1A4
:1011F000240002F06FFB0028F4D04FF0E0234FF002
:101200008052C3F8042DBFF34F8FBFF36F8FE9E710
:10121000FFF72AFD0020E8E702A802F0A1FB012663
:1012200019E0002384F8443021E0002384F845309D
:1012300023E02046FFF7B3FE02F024FAFFF7F2FCAA
:10124000A26BE36B9A42BBD3022DB9D0019B002B5A
:10125000DED0002EE0D0FFF707FD02F079F9FFF7AE
:10126000E1FC94F8442052B2B2F1FF3FD9D094F897
:10127000452052B2B2F1FF3FD7D0FFF7F5FC01A9EC
:1012800002A802F079FBD8B92046FFF71FFE00281C
:10129000CFD0019904F1100002F0E8FA2046FFF7E0
:1012A0007EFE02F0EFF90028C8D14FF0E0234FF0A6
:1012B0008052C3F8042DBFF34F8FBFF36F8FBDE78C
:1012C0002046FFF76CFE02F0DDF900208DE72DE9E6
:1012D000F84390B10F4616461C460546B1B1022CA4
:1012E00020D1EB6B012B1DD04FF0500383F31188FD
:1012F000BFF36F8FBFF34F8FFEE74FF0500383F3C1
:101300001188BFF36F8FBFF34F8FFEE7036C002B85
:10131000E5D04FF0500383F31188BFF36F8FBFF315
:101320004F8FFEE7FFF7A4FDEFF311884FF0500356
:1013300083F31188BFF36F8FBFF34F8FAA6BEB6BF3
:101340009A4206D3022C04D0002088F31188BDE80D
:10135000F88395F845904FFA89F9AB6B22463946E8
:101360002846FFF7CFFDB9F1FF3F06D009F1010391
:101370005BB285F845300120E7E76B6A0BB90120C5
:10138000E3E705F1240002F0A5FA18B126B1012027
:101390003060DAE70120D8E70120D6E7F0B585B064
:1013A000019290B10F460446C1B102F02FFB0646F0
:1013B00000BB019B002B5ED04FF0500383F31188DC
:1013C000BFF36F8FBFF34F8FFEE74FF0500383F3F0
:1013D0001188BFF36F8FBFF34F8FFEE7036C002BB5
:1013E000E3D04FF0500383F31188BFF36F8FBFF347
:1013F0004F8FFEE700263EE039462046FFF7BDFD51
:10140000013DA563236923B9FFF72EFC012005B038
:10141000F0BD04F1100002F05DFA0028F4D04FF0A6
:10142000E0234FF08052C3F8042DBFF34F8FBFF37A
:101430006F8FE9E7FFF718FC0020E8E702A802F049
:101440008FFA012621E0002384F8443029E00023AC
:1014500084F845302BE02046FFF7A1FD02F012F999
:1014600009E02046FFF79BFD02F00CF92046FFF74C
:101470003CFD00283FD1FFF7D5FBA56B002DBBD16C
:10148000019B002BD6D0002ED8D0FFF7EDFB02F049
:101490005FF8FFF7C7FB94F844305BB2B3F1FF3F4E
:1014A000D1D094F845305BB2B3F1FF3FCFD0FFF716
:1014B000DBFB01A902A802F05FFA0028D1D1204687
:1014C000FFF713FD0028C6D0019904F1240002F0B3
:1014D000CDF92046FFF763FD02F0D4F80028CAD109
:1014E0004FF0E0234FF08052C3F8042DBFF34F8F2D
:1014F000BFF36F8FBFE7002089E700000023072BB1
:101500000CD8074A52F833200AB10133F7E7044AEE
:1015100042F8331002EBC30250607047704700BFBF
:101520002C47002070B504460D461646FFF77AFB9F
:1015300094F844305BB2B3F1FF3F0DD094F84530DE
:101540005BB2B3F1FF3F0BD0FFF78EFBA36B5BB138
:101550002046FFF724FD70BD002384F84430EDE7FA
:10156000002384F84530EFE73246294604F1240091
:1015700002F094F9ECE7000008B50B4B1A6842F44E
:1015800000721A601A6842F480621A601A6842F4A3
:1015900080721A60032000F071F80F2001F00CFC3B
:1015A00000F0C2FC002008BD003C0240034A116864
:1015B000034B1B780B441360704700BF6C4700203F
:1015C00004000020014B1868704700BF6C470020E2
:1015D00038B50446FFF7F6FF0546B4F1FF3F02D0E9
:1015E000044B1B781C44FFF7EDFF401BA042FAD3CD
:1015F00038BD00BF04000020002807DB00F01F02F8
:10160000400901239340024A42F82030704700BF4E
:1016100000E100E0002808DB0901C9B200F16040E8
:1016200000F5614080F80013704700F00F000901D9
:10163000C9B2014B1954704714ED00E000B500F039
:101640000700C0F1070CBCF1040F28BF4FF0040CD9
:10165000031D062B0FD9C31E4FF0FF3E0EFA0CF0F0
:1016600021EA000199400EFA03FE22EA0E0241EA45
:1016700002005DF804FB0023EEE70000074AD36890
:1016800023F4E0631B041B0C000200F4E06003433E
:1016900043F0BF6343F40033D360704700ED00E0D4
:1016A00010B50446054BD868C0F30220FFF7C6FF0B
:1016B00001462046FFF7AEFF10BD00BF00ED00E081
:1016C00008B5FFF799FF08BD00230F2B00F2E38058
:1016D00070B582B065E085684FEA430E032404FAD2
:1016E0000EF425EA0405CC6804FA0EF42C43846059
:1016F000446824EA02044A68C2F300129A40224372
:1017000042605CE0DC08083450F8242003F0070550
:10171000AD004FF00F0E0EFA05FE22EA0E0E0A691A
:10172000AA4042EA0E0240F824205CE0062200E0D3
:10173000002202FA0EF22A430234574D45F82420C3
:10174000564A94686FEA0C0224EA0C054E6816F4B7
:10175000801F01D04CEA0405504CA560E46802EA01
:1017600004054E6816F4001F01D04CEA04054B4CEA
:10177000E560646802EA04054E6816F4003F01D093
:101780004CEA0405454C6560246822404D6815F418
:10179000803F01D04CEA0402404C226001330F2B01
:1017A00077D801229A400C6804EA020C32EA040459
:1017B000F4D14C6804F00304013C012C8BD94A6835
:1017C00002F00302032A09D0C4685D000322AA4084
:1017D00024EA02048A68AA402243C2604A6802F0EE
:1017E0000302022A8ED004684FEA430E032202FA53
:1017F0000EF224EA02044A6802F0030202FA0EF230
:10180000224302604A6812F4403FC7D0002201928E
:10181000234A546C44F480445464526C02F4804271
:101820000192019A9C08A51C1B4A52F8255003F00E
:10183000030E4FEA8E0E0F2202FA0EF225EA02057F
:10184000184A90423FF474AF02F58062904216D07D
:1018500002F58062904214D002F58062904212D06C
:1018600002F58062904210D002F5806290420ED064
:1018700002F5806290423FF459AF072259E70122F6
:1018800057E7022255E7032253E7042251E70522D6
:101890004FE702B070BD704700380140003C014086
:1018A00000380240000002400AB18161704709041B
:1018B000816170477047000008B5054B5B690342C2
:1018C00000D108BD024B5861FFF7F4FFF9E700BFF4
:1018D000003C014003685A6912F4806F01D1002076
:1018E00070476FF480625A6100230363202280F8FE
:1018F0003D2080F83E30026C42F00402026480F821
:101900003C30012070472DE9F04106460C46174651
:1019100098463BE0FFF756FE069BC01A404502D8AA
:10192000B8F1000F32D1012D18D033689B6924EA39
:1019300003039BB2B3FA83F35B099F4226D10023D2
:101940003363202286F83D2086F83E30326C42F028
:101950002002326486F83C30012027E033685B695E
:1019600024EA03039BB2B3FA83F35B09E5E7336828
:101970005B6924EA030C1FFA8CFCBCFA8CFC4FEA6E
:101980005C1C674511D1B8F1FF3FC3D1C4F30745D3
:10199000012DECD033689B6924EA030C1FFA8CFC00
:1019A000BCFA8CFC4FEA5C1CEBE70020BDE8F08140
:1019B0002DE9F84305460E469046994653E01A68CD
:1019C00042F400721A602B686FF480625A6100233F
:1019D0002B63202285F83D2085F83E302A6C42F0AA
:1019E00004022A6485F83C3001204AE0FFF7EAFD52
:1019F000A0EB0900404502D8B8F1000F33D1012F08
:101A000017D02B689B6926EA03039BB2003B18BFE3
:101A1000012343B300232B63202285F83D2085F862
:101A20003E302A6C42F020022A6485F83C300120C6
:101A300027E02B685B6926EA03039BB2003B18BFD3
:101A40000123E6E72B689C6926EA0404A4B2003C63
:101A500018BF0124A4B12B685A6912F4806FAED16B
:101A6000B8F1FF3FC2D1C6F30747012FEAD12B6877
:101A70005C6926EA0404A4B2003C18BF0124E9E72B
:101A80000020BDE8F8830000F0B583B004460D46A1
:101A900016461F46C36A082B0DD0012B0BD013F539
:101AA000803F08D0036B122B0AD10268136843F4FD
:101AB0008073136004E02268136843F4807313603A
:101AC0000097334600224FF001112046FFF71BFF1D
:101AD00080B92369B3F5804F16D1236805F0FE0560
:101AE0001D613B46324613492046FFF761FFF8B9B6
:101AF00003B0F0BD23681B6813F4807F02D04FF45D
:101B0000007323640320F3E7EB11226803F006035C
:101B100043F0F00313613B46324607492046FFF786
:101B200047FF18B92368EDB21D61DAE70120DFE74E
:101B30000120DDE7020001000800010070B5044645
:101B40000D46164623685B6913F0800F21D12046AD
:101B5000FFF7C0FEF8B9B5F1FF3FF3D0FFF732FD54
:101B6000801BA84201D8002DECD123685B6913F0DB
:101B7000800FE7D100232363202284F83D2084F8DE
:101B80003E30226C42F02002226484F83C30012076
:101B900000E0002070BD0120FCE770B504460D4652
:101BA000164623685B6913F0040F21D12046FFF726
:101BB00091FEF8B9B5F1FF3FF3D0FFF703FD801BAD
:101BC000A84201D8002DECD123685B6913F0040F03
:101BD000E7D100232363202284F83D2084F83E309F
:101BE000226C42F02002226484F83C30012000E0A4
:101BF000002070BD0120FCE7002800F0CC8070B50B
:101C0000044690F83D30002B77D0242384F83D30F3
:101C10002268136823F0010313602268136843F4F9
:101C2000004313602268136823F40043136000F03C
:101C3000F9FA62685A4B9A4264D85A4B98428CBF60
:101C400000230123002B40F0A8805749A1FB00315D
:101C50008B0C25686A6822F03F0242EA91426A6072
:101C600021680A6A22F03F0266684D4DAE424FD8A5
:101C7000013313430B622168CA6922F44F4222F0F8
:101C8000FF026568464B9D424CD8431E6D00B3FB76
:101C9000F5F3013340F6FC70034278D0C3F30B0335
:101CA0001A43CA6121680B6823F0C003E269206A05
:101CB000024313430B6021688B6823F4034323F032
:101CC000FF032269E068024313438B602168CB68FD
:101CD00023F0FF036269A06902431343CB602268CB
:101CE000136843F00103136000202064202384F86C
:101CF0003D30206384F83E0070BD80F83C3000F039
:101D000035F982E7294B98428CBF0023012399E7DC
:101D10004FF4967505FB03F3254DA5FB03539B0973
:101D20000133A6E7A668BEB9431E05EB450CB3FB1D
:101D3000FCF30133C3F30B03B3FA83F35B0943BB37
:101D4000C6B9431E05EB4505B3FBF5F30133C3F3F9
:101D50000B0343F40043A3E7431E05EB850C0CEB98
:101D60008C0CB3FBFCF30133C3F30B03B3FA83F323
:101D70005B09E4E7431E05EB850505EB8505B3FB31
:101D8000F5F30133C3F30B0343F4404388E7042323
:101D900086E7012384E7012070470120ACE700BFFC
:101DA000A08601007F841E0083DE1B43FF083D00E8
:101DB000D34D62102DE9F04385B004460F4690469E
:101DC00099460C9EFFF7FEFB94F83D10202904D0A5
:101DD0000227384605B0BDE8F08305460090192378
:101DE00001224F492046FFF78EFD002840F09280E7
:101DF00094F83C30012B00F08F80012384F83C30B4
:101E000023681A6812F0010F03D11A6842F0010228
:101E10001A602268136823F400631360212384F896
:101E20003D30102384F83E3000232364C4F824801E
:101E3000A4F82A90638D23853A4BE3622B46324601
:101E400039462046FFF720FE0746002866D10023CA
:101E5000039323685A6903929B690393039B11E0E0
:101E6000236C042B01D00127B3E72268136843F4E5
:101E700000731360F7E72A4631462046FFF78DFED0
:101E800000282ED1238D002B36D02A4631462046FD
:101E9000FFF754FE0028E3D1626A236812781A61C2
:101EA000606A431C6362618D89B2013989B26185C0
:101EB000238D013B9BB223852268516911F0040FE9
:101EC000D9D0002BD7D043781361636A01336362A2
:101ED000638D9BB2013B9BB26385238D013B2385C0
:101EE000C9E7236C042B01D0012772E7226813682D
:101EF00043F400731360F7E72268136843F4007338
:101F00001360202384F83D30002384F83E3084F8A9
:101F10003C305EE702275CE702275AE7012758E7D3
:101F2000020010000000FFFF00B583B00022009205
:101F30000D4B596C41F480415964596C01F4804156
:101F4000009100990192196C41F0805119641B6C49
:101F500003F080530193019B0F216FF00100FFF705
:101F60009FFB03B05DF804FB0038024030B589B038
:101F70000023039304930593069307930268154B7C
:101F80009A4201D009B030BD00250195124C236B57
:101F900043F002032363236B03F002030193019BCD
:101FA000C023039312230493012305930323069371
:101FB0000423079303A90948FFF786FB0295236CC6
:101FC00043F400132364236C03F400130293029B75
:101FD000D8E700BF0054004000380240000402402F
:101FE00000B589B0002303930493059306930793E8
:101FF0000368B3F1804F02D009B05DF804FB002103
:10200000019103F50E331A6C42F001021A641A6C46
:1020100002F001020192019A02911A6B42F0010250
:102020001A631B6B03F001030293029B03230393C8
:102030000223049301230593079303A90148FFF7A3
:1020400043FBD9E70000024000B589B000230393A9
:1020500004930593069307930268154B9A4202D0A6
:1020600009B05DF804FB0021019103F5FA331A6C05
:1020700042F400321A641A6C02F400320192019A9E
:1020800002911A6B42F001021A631B6B03F0010309
:102090000293029B0C2303930223049303230693CE
:1020A0000723079303A90348FFF70EFBD8E700BFF8
:1020B0000044004000000240002800F09B8070B502
:1020C0000D4604464F4B1B6803F00F038B4208D2AA
:1020D000CBB24C4A1370136803F00F038B4240F0ED
:1020E0008B80236813F0020F17D013F0040F04D075
:1020F000454A936843F4E0539360236813F0080F54
:1021000004D0414A936843F4604393603E4A936825
:1021100023F0F003A1680B439360236813F0010FD1
:1021200032D06368012B21D09A1E012A25D9364A64
:10213000126812F0020F61D033498A6822F003025C
:1021400013438B60FFF73EFA06462F4B9B6803F064
:102150000C036268B3EB820F16D0FFF733FA801BD3
:1021600041F288339842F0D9032042E0264A1268AF
:1021700012F4003FE0D101203BE0234A126812F044
:10218000007FD9D1012034E01E4B1B6803F00F0300
:10219000AB4207D9EAB21B4B1A701B6803F00F035E
:1021A000AB422DD1236813F0040F06D0164A936872
:1021B00023F4E053E1680B439360236813F0080FA6
:1021C00007D0114A936823F46043216943EAC103AD
:1021D000936000F065F80C4B9B68C3F303130B4A44
:1021E000D35CD8400A4B18600A4B186800F0E4FD35
:1021F000002070BD012070470120FAE70120F8E7B8
:102200000120F6E7003C024000380240044D00087F
:102210000C00002008000020014B1868704700BF28
:102220000C00002008B5FFF7F7FF044B9B68C3F3D1
:102230008223034AD35CD84008BD00BF0038024067
:10224000FC4C000808B5FFF7E7FF044B9B68C3F39D
:102250004233034AD35CD84008BD00BF0038024077
:10226000FC4C00080F2303600B4B9A6802F003023A
:1022700042609A6802F0F00282609A6802F4E052CA
:10228000C2609B68DB0803F4E0530361034B1B68E7
:1022900003F00F030B60704700380240003C02401F
:1022A00008B5604B9B6803F00C03082B06D00C2B81
:1022B0005ED0042B40F0B4805B4833E0594B5A6841
:1022C00002F03F025B6813F4800F2CD0554B586826
:1022D000C0F388104FEA401CBCEB000C6EEB0E0EF6
:1022E0004FEA8E1343EA9C634FEA8C11B1EB0C0169
:1022F00063EB0E03DB0043EA5173C90011EB000CE2
:1023000043F10003590200234FEA4C2041EADC511B
:10231000FDF7AEFF434B5B68C3F3014301335B0042
:10232000B0FBF3F008BD3F4B5868C0F388104FEA8C
:10233000401CBCEB000C6EEB0E0E4FEA8E1343EA12
:102340009C634FEA8C11B1EB0C0163EB0E03DB00D5
:1023500043EA5173C90011EB000C43F100039902E9
:1023600000234FEA8C2041EA9C51FDF781FFD1E721
:102370002C4B5A6802F03F025B6813F4800F2AD09E
:10238000284B5868C0F388104FEA401CBCEB000C87
:102390006EEB0E0E4FEA8E1343EA9C634FEA8C11EC
:1023A000B1EB0C0163EB0E03DB0043EA5173C90090
:1023B00011EB000C43F10003590200234FEA4C20BB
:1023C00041EADC51FDF754FF164B5B68C3F302731F
:1023D000B0FBF3F0A6E7134B5868C0F388104FEA40
:1023E000401CBCEB000C6EEB0E0E4FEA8E1343EA62
:1023F0009C634FEA8C11B1EB0C0163EB0E03DB0025
:1024000043EA5173C90011EB000C43F10003990238
:1024100000234FEA8C2041EA9C51FDF729FFD3E7C6
:1024200002487FE70038024000127A000024F400DE
:10243000002800F0018270B582B00446036813F0F2
:10244000010F41D0994B9B6803F00C03042B32D051
:10245000964B9B6803F00C03082B27D0934B9B688B
:1024600003F00C030C2B59D06368B3F5803F5BD0AD
:10247000B3F5A02F5ED08D4B1A6822F480321A601B
:102480001A6822F480221A606368002B5CD0FFF780
:1024900099F80546854B1B6813F4003F14D1FFF7EC
:1024A00091F8401B6428F5D90320CCE17F4B5B6891
:1024B00013F4800FD2D07D4B1B6813F4003F03D080
:1024C0006368002B00F0BA81236813F0020F60D01C
:1024D000764B9B6813F00C0F4AD0744B9B6803F04B
:1024E0000C03082B3FD0714B9B6803F00C030C2BA3
:1024F00069D0E368002B75D06D4B01221A60FFF79D
:1025000061F80546694B1B6813F0020F61D1FFF7B4
:1025100059F8401B0228F5D9032094E1634B5B680E
:1025200013F4800FA0D0C6E7604A136843F48033E9
:102530001360A9E75D4B1A6842F480221A601A689A
:1025400042F480321A609FE7FFF73CF80546574B8C
:102550001B6813F4003FB7D0FFF734F8401B642822
:10256000F5D903206FE1514B5B6813F4800FBAD1AA
:102570004E4B1B6813F0020F03D0E368012B40F0B1
:102580005F814A4A136823F0F803216943EAC103D3
:102590001360236813F0080F49D06369002B33D010
:1025A000434B0122C3F8802EFFF70CF805463F4B42
:1025B0005B6F13F0020F3AD1FFF704F8401B0228BB
:1025C000F5D903203FE1394B5B6813F4800F90D1BC
:1025D000CEE7364A136823F0F803216943EAC103C2
:1025E0001360D6E7324B00221A60FEF7EBFF054678
:1025F0002E4B1B6813F0020FCBD0FEF7E3FF401BFE
:102600000228F5D903201EE1294B0022C3F8802EB1
:10261000FEF7D8FF0546254B5B6F13F0020F06D07F
:10262000FEF7D0FF401B0228F5D903200BE12368F9
:1026300013F0040F76D01D4B1B6C13F0805F33D169
:1026400000230193194B1A6C42F080521A641B6CE0
:1026500003F080530193019B0125164B1B6813F473
:10266000807F29D0A368012B3AD0052B3ED00F4B99
:102670001A6F22F001021A671A6F22F004021A6719
:10268000A368002B3CD0FEF79DFF0646074B1B6F4F
:1026900013F0020F45D1FEF795FF801B41F28833FE
:1026A0009842F3D90320CEE00025D6E70038024057
:1026B00000004742007000406B4A136843F4807387
:1026C0001360FEF77FFF0646674B1B6813F4807F9D
:1026D000C8D1FEF777FF801B0228F5D90320B2E0AE
:1026E000624A136F43F001031367C9E75F4B1A6F28
:1026F00042F004021A671A6F42F001021A67BFE73C
:10270000FEF760FF0646594B1B6F13F0020F08D00F
:10271000FEF758FF801B41F288339842F3D903201B
:1027200091E0EDB9A369002B00F08C804F4A9268CC
:1027300002F00C02082A54D0022B17D04C4B002276
:102740001A66FEF73FFF0446484B1B6813F0007FF4
:1027500045D0FEF737FF001B0228F5D9032072E0B1
:10276000424A136C23F080531364DBE7404B002292
:102770001A66FEF727FF05463C4B1B6813F0007FE7
:1027800006D0FEF71FFF401B0228F5D903205AE0B0
:10279000E369226A1343626A43EA8213A26A520817
:1027A000013A43EA0243E26A43EA0263226B43EAE4
:1027B00002732E4A53602E4B01221A66FEF702FF67
:1027C00004462A4B1B6813F0007F06D1FEF7FAFE81
:1027D000001B0228F5D9032035E0002033E000205B
:1027E00031E0012B31D0214B5B6803F48001E269B9
:1027F00091422CD103F03F02216A8A4229D1616AB9
:1028000047F6C0721A40B2EB811F24D103F4403165
:10281000A26A5208013AB1EB024F1ED103F0706276
:10282000E16AB2EB016F1AD103F0E043226BB3EB24
:10283000027F16D1002006E001207047012002E04F
:10284000012000E0002002B070BD0120FBE7012064
:10285000F9E70120F7E70120F5E70120F3E7012080
:10286000F1E70120EFE700BF0070004000380240B0
:10287000000047427047000090F83D30012B37D1EF
:10288000022380F83D300268D36843F00103D3602F
:102890000368194A934220D0B3F1804F1DD0A2F5AE
:1028A0007C42934219D002F58062934215D002F522
:1028B0008062934211D002F5784293420DD002F526
:1028C0007052934209D0A2F59432934205D01A680F
:1028D00042F001021A60002070479A6802F0070275
:1028E000062A07D01A6842F001021A6000207047D9
:1028F000012070470020704700000140704770477A
:102900007047704770B504460368DE681D6915F0AE
:10291000020F10D016F0020F0DD06FF002021A61F4
:102920000123037703689B6913F0030F5ED0FFF761
:10293000E6FF0023237715F0040F12D016F0040FE2
:102940000FD023686FF004021A61022323772368F3
:102950009B6913F4407F4FD02046FFF7D0FF002340
:10296000237715F0080F12D016F0080F0FD0236848
:102970006FF008021A61042323772368DB6913F0E0
:10298000030F40D02046FFF7BAFF0023237715F04E
:10299000100F12D016F0100F0FD023686FF0100236
:1029A0001A61082323772368DB6913F4407F31D051
:1029B0002046FFF7A4FF0023237715F0010F02D074
:1029C00016F0010F2DD115F0800F02D016F0800FF8
:1029D0002FD115F0400F02D016F0400F31D115F075
:1029E000200F02D016F0200F33D170BDFFF786FF05
:1029F0002046FFF785FF9CE72046FFF77FFF204634
:102A0000FFF77EFFABE72046FFF778FF2046FFF792
:102A100077FFBAE72046FFF771FF2046FFF770FF08
:102A2000C9E723686FF001021A612046FDF79EFF97
:102A3000C9E723686FF080021A61204600F0BBF9F5
:102A4000C7E723686FF040021A612046FFF759FF7D
:102A5000C5E723686FF020021A61204600F0AAF94A
:102A6000C3E700000368324A904212D0B0F1804FB1
:102A70000FD0A2F57C4290420BD002F580629042CA
:102A800007D002F58062904203D002F5784290426E
:102A900003D123F070034A681343254A90422AD099
:102AA000B0F1804F27D0A2F57C42904223D002F5AE
:102AB000806290421FD002F5806290421BD002F5E6
:102AC0007842904217D002F57052904213D002F52E
:102AD000806290420FD002F5806290420BD0A2F546
:102AE0009832904207D002F58062904203D002F5FE
:102AF0008062904203D123F44073CA68134323F0E9
:102B000080034A6913438A68C2620A688262084A7B
:102B1000904203D002F58062904201D10A690263BB
:102B2000026842F0040202600122426103607047C1
:102B30000000014040B310B5044690F83D30F3B1B9
:102B4000022384F83D30214651F8040BFFF78AFF39
:102B5000012384F8463084F83E3084F83F3084F80E
:102B6000403084F8413084F8423084F8433084F8AF
:102B7000443084F8453084F83D30002010BD80F8A2
:102B80003C30FFF777FEDBE701207047002853D089
:102B9000F8B50D46044690F83D30002B47D002238F
:102BA00084F83D302268936823F4804323F00703C0
:102BB0009360214651F8040BFFF754FF21688B689E
:102BC0008A690E6A2868184322F4407222F00302D0
:102BD000AB68AF6943EA0723134323F47C4323F034
:102BE000FC03EA68EF6942EA07221A432B6A1B03D7
:102BF0002F6943EA0713134326F0AA066A686D6932
:102C000042EA05123243886021688B6123681A62A8
:102C1000012384F8463084F83E3084F83F3084F84D
:102C2000423084F8433084F83D300020F8BD80F80D
:102C30003C30FFF7D5F9B2E70120704701F01F01E2
:102C40004FF0010C0CFA01FC036A23EA0C03036247
:102C5000036A8A4013430362704738B5044690F80C
:102C60003E00C0B294F83F3094F84220D2B294F8BB
:102C700043C00D46B1B9012849D1012A48D10223E8
:102C800084F83E3084F842307DB3042D39D00122DF
:102C900000212068FFF7D2FF012204212068FFF7FE
:102CA000CDFF27E0DBB25FFA8CFC042912D00128AB
:102CB00033D1012B2CD1012A31D1BCF1010F30D1FC
:102CC000022384F83E3084F83F3084F8423084F8A0
:102CD0004330D9E7012B1CD1BCF1010F1BD10223DA
:102CE00084F83F3084F84330CEE701220021206889
:102CF000FFF7A4FF2268136843F00103136000206C
:102D000006E0012204212068FFF798FFF2E7012086
:102D100038BD0120FCE71846FAE70120F8E718461D
:102D2000F6E71046F4E7000090F83C20012A3DD079
:102D300010B40346012280F83C20022280F83D2096
:102D400002685068946820F0700C086840EA0C0033
:102D500050601A68164882421AD0B2F1804F17D0DC
:102D6000A0F57C40824213D000F5806082420FD0F3
:102D700000F5806082420BD000F57840824207D097
:102D800000F57050824203D0A0F59430824204D105
:102D900024F08004496821439160012283F83D209A
:102DA000002083F83C005DF8044B70470220704718
:102DB000000001407047704730B589B004460023D9
:102DC0000193214B1A6C42F020021A641B6C03F031
:102DD00020030193019B02A903A8FFF743FA069B76
:102DE000CBB9FFF71FFA0346184AA2FB03239B0C3B
:102DF000013B1748174A026040F2E732C260436065
:102E00000023036183608361FFF794FE054630B1C0
:102E1000284609B030BDFFF705FA4300E4E70C4847
:102E2000FFF72AFD05460028F2D13720FEF748FCBF
:102E30000F2C01D90125EBE7002221463720FEF7B0
:102E40002FFC054B1C60E3E70038024083DE1B4388
:102E500070470020001400400800002010B5044610
:102E60000268136923F44053C1680B4313618368FC
:102E700002691A4343691A43C3691A430168CB685C
:102E800023F4164323F00C031343CB600268536909
:102E900023F4407381690B4353610368314A9342C1
:102EA00006D002F58062934202D0FFF7BBF901E041
:102EB000FFF7C8F9E369B3F5004F29D000210318E3
:102EC00049411B1841F10001C90041EA5371DB007F
:102ED000181863684FEA83024FEA937341F10001C7
:102EE000FDF7C6F9204AA2FB00314909642303FB20
:102EF00011031B013233A2FB03235B0903F0F00231
:102F000002EB011203F00F03216813448B6010BD24
:102F10000023021843EB0301121841F10001C9001C
:102F200041EA5271D200101841F100016268921812
:102F30005B41FDF79DF90C4AA2FB0031490964236E
:102F400003FB1103DB003233A2FB03235B095A00AE
:102F500002F4F87202EB011203F007032168134434
:102F60008B60D4E7001001401F85EB5160B310B5B2
:102F7000044690F8413013B3242384F8413022688A
:102F8000D36823F40053D3602046FFF767FF22681D
:102F9000136923F4904313612268536923F02A03D1
:102FA00053612268D36843F40053D3600020606407
:102FB000202384F8413084F84230606310BD80F8EB
:102FC0004030FFF741F8D7E701207047FEE7FEE702
:102FD000FEE7FEE7FEE7704708B54FF40050FEF746
:102FE0006BFC08BD08B50248FFF78CFC08BD00BFAC
:102FF0007047002010B503460C4A0D490D48006883
:1030000040B10C4800680344521A934206D8094A5A
:10301000136010BD0748084C0460F2E700F0CCFFD5
:103020000C2303604FF0FF30F3E700BF00000220E5
:1030300000040000B8470020304F0020034AD2F8B7
:10304000883043F47003C2F88830704700ED00E028
:10305000084B1B681B6823B9074B4FF0FF321A60FF
:103060007047044B1B68DB68DB685A68024B1A60C8
:10307000704700BF2C480020C44700202DE9F047CE
:1030800080460D4617469946089EDDF824A00A9C06
:103090009200A521206B00F087FF236B07F180428F
:1030A000013A03EB820727F00707002D61D04FF0AC
:1030B000000CBCF10F0F09D815F80C3004EB0C0212
:1030C00082F8343013B10CF1010CF2E7002384F8DC
:1030D0004330372E00D93726E662E66400252565A1
:1030E000201DFDF774FB04F11800FDF770FB24614F
:1030F000C6F13806A6616462C4F8985184F89C5100
:103100004FF4A072294604F1580000F04DFF1B4B0C
:10311000E36503F168022266D0336366012200236F
:10312000C4E93C2343F20E33A4F8F8304AF6CD3319
:10313000A4F8FA3041F23423A4F8FC304EF26D6367
:10314000A4F8FE304DF6EC63A4F800310523A4F892
:1031500002310B23A4F804314A4641463846FDF7B4
:1031600035FD2060BAF1000F01D0CAF80040BDE87B
:10317000F087002384F83430ABE700BFE84D00202F
:1031800038B5002407E004EB840293000E4818448D
:10319000FDF712FB0134372CF5D90C4D2846FDF70D
:1031A0000BFB0B4C2046FDF707FB0A48FDF704FB21
:1031B0000948FDF701FB0948FDF7FEFA084B1D60C1
:1031C000084B1C6038BD00BF584800204448002010
:1031D000304800201448002000480020E847002024
:1031E0002C4800202848002010B50446FDF71AFDA1
:1031F000224A136801331360214B1B685BB1214BDA
:103200001B686BB91E4B1B68DA6AE36A9A4207D8DF
:103210001B4B1C6004E01A4B1C601368012B29D067
:10322000194A1368013313606364E06A174B1B6823
:10323000984201D9154B186000EB8000211D144BFA
:1032400003EB8000FDF7C6FAFDF70EFD0D4B1B6882
:103250007BB10B4B1B68DA6AE36A9A4209D24FF0E2
:10326000E0234FF08052C3F8042DBFF34F8FBFF31C
:103270006F8F10BDFFF784FFD2E700BFE447002047
:10328000B84C0020D8470020C8470020DC47002069
:103290005848002010B50446583000F0B9FE94F8A4
:1032A0009D3163B1012B11D0022B0ED04FF0500392
:1032B00083F31188BFF36F8FBFF34F8FFEE7206B4F
:1032C000FDF7B2F92046FDF7AFF910BD2046FDF736
:1032D000ABF9FAE70F4B1B68D3B110B5FDF7A2FCB1
:1032E0000D4BDB68DC68201DFDF798FA0B4A13686C
:1032F000013B1360074A1368013B1360FDF7B4FC00
:103300002046FFF7C7FF034B1B68002BE6D110BD1B
:10331000704700BFFC47002000480020E447002021
:1033200008B5FFF7D7FF074B1B68012BF9D94FF002
:10333000E0234FF08052C3F8042DBFF34F8FBFF34B
:103340006F8FEEE75848002070B504460D46174BC6
:103350001E68174B18680430FDF760FAB4F1FF3FA0
:103360000DD03444124B1B685C60A64210D9114B3F
:1033700018680F4B19680431FDF737FA70BD002D3E
:10338000EFD00B4B196804310B48FDF723FAF5E732
:103390000A4B1868064B19680431FDF726FA084BEA
:1033A0001B68A342EAD9064B1C60E7E7E047002010
:1033B000B84C002028480020E84700202C48002076
:1033C000C447002030B587B00B9C8CB10C9DC5B1B3
:1033D0004FF4D0750495049DB5F5D07F1AD04FF009
:1033E000500383F31188BFF36F8FBFF34F8FFEE756
:1033F0004FF0500383F31188BFF36F8FBFF34F8FEC
:10340000FEE74FF0500383F31188BFF36F8FBFF3D4
:103410004F8FFEE7049D0C9D2C63022485F89D418F
:1034200000240394029505AC01940A9C0094FFF7D4
:1034300025FE0C98FFF7D8FE059807B030BD2DE9A2
:10344000F04385B00746884614461E469000FDF7B7
:1034500069F810B381464FF4D070FDF763F8054664
:10346000A8B1C0F83090002380F89D3103930290FA
:103470000D9B01930C9B00933346224641463846F0
:10348000FFF7FCFD2846FFF7AFFE012007E04846A6
:10349000FDF7CAF84FF0FF3001E04FF0FF3005B004
:1034A000BDE8F08310B588B000240594069407AAFF
:1034B00006A905A8FCF7BAFF059B0293069B01939A
:1034C00000942346079A1A491A48FFF77BFF1A4BC4
:1034D0001860E8B100F05EFB01281AD14FF05003EC
:1034E00083F31188BFF36F8FBFF34F8F134B1B68AC
:1034F0005833134A1360134B4FF0FF321A60124BCC
:1035000001221A60114B00221A60FDF725FC03E02E
:103510000020B0F1FF3F01D008B010BD4FF05003C4
:1035200083F31188BFF36F8FBFF34F8FFEE700BFA8
:103530009C4C000821330008C0470020B84C0020F4
:1035400010000020C4470020D8470020E04700209A
:10355000024A136801331360704700BFBC47002064
:10356000014B1868704700BFE0470020F8B53A4BA0
:103570001B68002B69D1394B1D6801351D60C5B929
:10358000374B1B681B6843B14FF0500383F311881E
:10359000BFF36F8FBFF34F8FFEE7314A1168314B96
:1035A000186810601960304A136801331360FFF720
:1035B0004FFD2E4B1B68AB423DD900272C4B1B689F
:1035C000DB6A03EB83039A002A4B9B58012B00D93B
:1035D0000127294B1B68002B3CD001273AE001272B
:1035E0001F4B1B681B6843B31D4B1B68DB68DC6803
:1035F00063689D4226D3261D3046FDF70FF9A36A66
:103600001BB104F11800FDF709F9E36A1B4A1268BF
:10361000934201D9194A136003EB83039A003146A0
:1036200014481044FDF7D6F8E26A114B1B68DB6AB8
:103630009A42D4D2D4E70027D2E70C4B4FF0FF32A6
:103640001A60BBE7094A1360B8E70D4A13680133F3
:10365000136000273846F8BDBC470020E047002033
:103660002C48002028480020CC470020C4470020D8
:10367000B84C002058480020D0470020DC470020EC
:10368000D447002038B5354B1B6843B94FF0500381
:1036900083F31188BFF36F8FBFF34F8FFEE7FDF702
:1036A000C1FA2E4B1A68013A1A601B68002B4FD1E1
:1036B0002B4B1B680BB900244BE00024294B1B68E3
:1036C0001BB3284BDB68DC6804F11800FDF7A6F893
:1036D000251D2846FDF7A2F8E06A234B1B68984297
:1036E00001D9214B186000EB800029461F4B03EBEA
:1036F0008000FDF76FF8E26A1D4B1B68DB6A9A4297
:10370000DCD31C4B01221A60D8E70CB1FFF7A0FCF8
:10371000194B1C6884B9174B1C68D4B14FF0E023D7
:103720004FF08052C3F8042DBFF34F8FBFF36F8F5C
:1037300001240EE0013C07D0FFF718FF0028F9D064
:103740000C4B01221A60F5E70B4B00221A60E2E7EE
:103750000024FDF789FA204638BD00BFBC47002091
:10376000E447002014480020DC470020584800208F
:10377000B84C0020D0470020D447002010B5A8B195
:103780000446104B1B6843B14FF0500383F311887C
:10379000BFF36F8FBFF34F8FFEE7FFF7D9FE002116
:1037A0002046FFF7D1FDFFF76DFF48B94FF0E0234A
:1037B0004FF08052C3F8042DBFF34F8FBFF36F8FCC
:1037C00010BD00BFBC470020224B1B681BB1224B21
:1037D00001221A607047204B00221A601F4B1B68A1
:1037E00003EB83018A001E498A585AB90BB1013B89
:1037F000F6E74FF0500383F31188BFF36F8FBFF3E9
:103800004F8FFEE7084603EB83018A0002445168AC
:103810004968516003EB830C4FEA8C020832024482
:1038200091420FD003EB830291000D4A0A44526883
:10383000D1680C4A116009490B60136858330A4A71
:1038400013607047486862469100054A0A44506018
:10385000E8E700BFBC470020D0470020DC4700203D
:1038600058480020B84C00201000002058B110B576
:103870000C46094A11681831FCF7B7FF01212046B0
:10388000FFF762FD10BD4FF0500383F31188BFF3C3
:103890006F8FBFF34F8FFEE7B84C002038B570B183
:1038A0000D4614460A4A11681831FCF793FF0CB113
:1038B0004FF0FF3521462846FFF746FD38BD4FF053
:1038C000500383F31188BFF36F8FBFF34F8FFEE771
:1038D000B84C002038B5C368DC6824B304F118057F
:1038E0002846FCF79BFF184B1B682BBB251D284661
:1038F000FCF794FFE06A154B1B68984201D9134B03
:10390000186000EB80002946114B03EB8000FCF7A8
:1039100061FFE26A0F4B1B68DB6A9A4211D90120F2
:103920000D4B186038BD4FF0500383F31188BFF37F
:103930006F8FBFF34F8FFEE729460848FCF74AFF19
:10394000E7E70020EEE700BFBC470020DC4700208F
:1039500058480020B84C0020D047002014480020D0
:10396000034B1B680360034B1B684360704700BF39
:10397000CC470020E0470020E0B170B50C4605467A
:1039800009B3FDF74FF91C4B19686B68C81A226818
:10399000B2F1FF3F28D0DFF864C0DCF800C02E6829
:1039A000664501D08B4224D9824215D8002323607A
:1039B00001241AE04FF0500383F31188BFF36F8F97
:1039C000BFF34F8FFEE74FF0500383F31188BFF32F
:1039D0006F8FBFF34F8FFEE75B1A134423602846B7
:1039E000FFF7BEFF002400E00024FDF73DF920466C
:1039F00070BD0124F9E700BFE0470020CC4700205C
:103A0000014B01221A607047D0470020054B1B680C
:103A100033B1054B1B680BB1002070470220704783
:103A200001207047D8470020BC47002000283BD029
:103A300038B504461E4B1B68834208D04FF0500334
:103A400083F31188BFF36F8FBFF34F8FFEE7036DD2
:103A500043B94FF0500383F31188BFF36F8FBFF367
:103A60004F8FFEE7013B0365C16AC26C91421DD0D6
:103A70000BB1002038BD051D2846FCF7CFFEE06CD9
:103A8000E062C0F13803A3610A4B1B68984201D978
:103A9000084B186000EB80002946074B03EB8000C1
:103AA000FCF798FE0120E5E7002070470020E1E7E1
:103AB000B84C0020DC47002058480020064B1A680C
:103AC00013682BB90123036023B9D36818687047C2
:103AD0000023F8E700207047BC4D002008B5416086
:103AE000006191420CD8D21A83699A4201D3012015
:103AF00008BD011D094B1868FCF777FE0020F7E7A9
:103B00009A4201D2994206D2011D054B1868FCF772
:103B10006CFE0020ECE70120EAE700BFB84D002072
:103B2000BC4D002030B583B0FDF77CF8114B1B680D
:103B30001BB1FDF799F803B030BD0F4D2846FCF7D7
:103B40003BFE0E4C2046FCF737FE0D4B1D600D4B27
:103B50001C60002300930C4B0C4A10210A20FDF737
:103B6000A8FA044B18600028E3D00949FDF7C6FC09
:103B7000DFE700BFB44D0020D44D0020C04D002031
:103B8000BC4D0020B84D0020BC4C00200C4D002046
:103B9000A44C000810B588B0FFF7C4FF124B1B6897
:103BA000CBB100240594069407AA06A905A8FCF742
:103BB00049FC059B0293069B019302230093234635
:103BC000079A0A490A48FFF7FDFB0A4B186010B133
:103BD000012008B010BD4FF0500383F31188BFF3EC
:103BE0006F8FBFF34F8FFEE7B44D0020AC4C000841
:103BF000F93E0008B04D0020B8B19C460346184875
:103C0000006858B300B585B0009101920293052970
:103C10001CDCFFF7FBFE022810D000231A46694681
:103C20000F480068FDF78FFA15E04FF0500383F35B
:103C30001188BFF36F8FBFF34F8FFEE70023069A03
:103C4000694607480068FDF77EFA04E000236246F3
:103C50006946FDF73CFB05B05DF804FB00207047AA
:103C6000B44D002070B582B01B4B1B681A6862B35C
:103C7000DB681E68DC68251D2846FCF7CFFD236A3B
:103C80002046984794F8283013F0040FECD0A3692D
:103C900033449E4207D26360246129460E4B186864
:103CA000FCF7A3FDE0E7002100910B4632462046D9
:103CB000FFF7A2FF0028D7D14FF0500383F31188FC
:103CC000BFF36F8FBFF34F8FFEE7044A10680249BE
:103CD0000860136002B070BDBC4D0020B84D0020DC
:103CE00038B50546FFF73CFC0446074B1B6883428A
:103CF00005D800232B60044B1C60204638BDFFF71D
:103D0000B1FF01232B60F6E7AC4D002070B582B007
:103D100006460D4617490968C968CC68201DFCF79E
:103D20007DFD94F828C01CF0040F08D12CF0010C84
:103D300084F828C0236A2046984702B070BDA16964
:103D400033462A4631442046FFF7C8FE0028F1D00A
:103D5000002100910B4632462046FFF74DFF002818
:103D6000E8D14FF0500383F31188BFF36F8FBFF397
:103D70004F8FFEE7BC4D002070B582B006460C4662
:103D8000FFF7E6FB01A8FFF7ABFF019B33BB05463E
:103D9000E4B9B04213D22246711B124B1868FDF7EA
:103DA000C1FBFFF76FFCD8B94FF0E0234FF0805212
:103DB000C3F8042DBFF34F8FBFF36F8F10E0FFF7F1
:103DC00061FC29463046FFF7A1FF09E0064A126868
:103DD00012680AB90124DEE71C46DCE7FFF752FC53
:103DE00002B070BDB44D0020B84D002010B588B0B1
:103DF00002E0049B002B0FDA002204A93D4B186857
:103E0000FDF7CCFA002872D0049B002BF1DA079959
:103E10000698059B9847ECE7069C636913B1201D43
:103E2000FCF7FCFC03A8FFF75BFF0246049B092B91
:103E3000E2D8DFE803F00505052F364E05052F36DD
:103E400094F8283043F0010384F82830059BA169D9
:103E500019442046FFF742FE0028CDD0236A2046B1
:103E6000984794F8283013F0040FC5D0A2690021B8
:103E700000910B46059802442046FFF7BDFE00283E
:103E8000BAD14FF0500383F31188BFF36F8FBFF3A4
:103E90004F8FFEE794F8283023F0010384F8283090
:103EA000AAE794F8283043F0010384F828300599F4
:103EB000A16129B1034601442046FFF70FFE9BE7AD
:103EC0004FF0500383F31188BFF36F8FBFF34F8F11
:103ED000FEE794F8283013F0020F04D023F001031A
:103EE00084F8283088E72046FCF79EFB84E708B07A
:103EF00010BD00BFB44D002000B583B001A8FFF78E
:103F0000DDFD0199FFF738FFFFF770FFF6E70000CE
:103F1000DFF834D0FFF792F80C480D490D4A002322
:103F200002E0D458C4500433C4188C42F9D30A4A6E
:103F30000A4C002301E013600432A242FBD300F0DC
:103F400041F8FCF7D9FD7047000002200000002076
:103F500060000020584D000860000020304F002015
:103F6000FEE700000EB410B59DB01FAB02900690A6
:103F70006FF000410A48079104910A4953F8042B55
:103F80000591002402A9006801931B9400F056F9E2
:103F9000029B1C701DB0BDE8104003B0704700BF0D
:103FA000100000200802FFFF02440346934200D1A4
:103FB000704703F8011BF9E7014B1868704700BF11
:103FC0001000002070B50D4B0D4D5B1B9C100026A2
:103FD000A64209D100F046FE0A4D0B4B5B1B9C101C
:103FE0000026A64205D170BD55F8043B984701361E
:103FF000EEE755F8043B98470136F2E7504D0008CC
:10400000504D0008504D0008544D0008704770474F
:104010002D4B1B68834270B5044653D0C3691BB354
:10402000DB6863B10025E369DB685959B1B9043530
:10403000802DF8D1E3692046D96800F055F8E3698E
:10404000196811B1204600F04FF8E3699D685DB131
:10405000294620462D6800F047F8F8E70E6820460C
:1040600000F042F83146E1E7616911B1204600F005
:104070003BF8E16911B1204600F036F8216B11B12F
:10408000204600F031F8616B11B1204600F02CF8A9
:10409000A16B11B1204600F027F8A16C11B12046A8
:1040A00000F022F8616C11B1204600F01DF8E16AC1
:1040B00011B1204600F018F8236A1BB12046BDE874
:1040C0007040184770BD00BF100000200A449142A4
:1040D00000F1FF3300D1704710B511F8014B03F820
:1040E000014F9142F9D110BD38B50546002941D0A4
:1040F00051F8043C0C1F002BB8BFE41800F0CAFBB9
:104100001D4A136833B9636014602846BDE838401F
:1041100000F0C6BBA34208D9206821188B4201BF1A
:1041200019685B6809182160EDE71A465B680BB1F6
:10413000A342FAD911685018A0420BD1206801445B
:10414000501883421160E0D118685B6853600844DE
:104150001060DAE702D90C232B60D6E7206821181B
:104160008B4204BF19685B68636004BF0918216053
:104170005460CAE738BD00BF2C4F00202DE9F0473E
:104180008E681F46BE4282460C469046334653D840
:10419000B1F90C0010F4906F2BD0656923680969A0
:1041A00005EB4505A3EB010905EBD5757B1C6D10EF
:1041B0004B44AB422A4684BF1D462A46430527D5B9
:1041C0001146504600F058F9064658B321694A4650
:1041D000FFF77CFFA38923F4906343F08003A3815E
:1041E000266165614E44A5EB09052660A5603E4643
:1041F0003B461F4620683A46414600F085FBA368CF
:104200009B1BA36023683B4423600020BDE8F0872C
:10421000504600F04BFB06460028E1D1216950468C
:10422000FFF762FF0C23CAF80030A38943F0400374
:10423000A3814FF0FF30E9E73E46DBE72DE9F04F81
:1042400098468B891B069DB007460D46144610D52F
:104250000B6973B9402100F00FF92860286130B96B
:104260000C233B604FF0FF301DB0BDE8F08F4023C2
:104270006B610023099320238DF82930CDF80C8041
:104280003023DFF89C818DF82A304FF00109234656
:104290009A4613F8012B0AB1252AF9D1BAEB040B7F
:1042A0000BD05B46224629463846FFF767FF0130B0
:1042B00000F0A780099A5A4409929AF80030002B1E
:1042C00000F09F8000234FF0FF32CDE905230AF173
:1042D000010A049307938DF853301A93544605222C
:1042E00014F8011B4E48FBF773FF049AD8B9D006A7
:1042F00044BF20238DF85330110744BF2B238DF882
:1043000053309AF800302A2B15D0079A54460020D3
:104310004FF00A0C214611F8013B303B092B4BD9D9
:10432000B0B1079214E0A0EB080309FA03F31343BA
:104330000493A246D2E7039B191D1B680391002B2F
:10434000BBBF5B4242F0020207930793B8BF0492DF
:1043500023782E2B0AD163782A2B32D1039B1A1D86
:104360001B68039243EAE37302340593DFF8C0A0AD
:10437000217803225046FBF72BFF38B1049BA0EBBA
:104380000A004022824013430134049314F8011BB5
:1043900024488DF828100622FBF71AFF002836D093
:1043A000214B1BBB039B073323F007030833039305
:1043B000099B334409936AE70CFB02320C46012047
:1043C000A8E700230134059319464FF00A0C204654
:1043D00010F8012B303A092A03D9002BC6D00591D9
:1043E000C4E70CFB012104460123F0E703AB009373
:1043F0002A460E4B04A93846AFF30080421C0646FD
:10440000D6D1AB895B063FF52DAF09982CE703ABFE
:1044100000932A46054B04A9384600F01BF9EDE746
:10442000144D00081E4D0008000000007D410008EA
:104430001A4D000870B50F4E0C463168054611B98B
:1044400000F07CFA30602146284600F077FA431CE1
:1044500003D14FF0FF34204670BDC41C24F0030488
:10446000A042F8D0211A284600F068FA0130F2D1B3
:10447000EFE700BF284F00202DE9F843CD1C25F0C1
:10448000030508350C2D38BF0C25002D064601DB31
:10449000A94204D90C2333600020BDE8F883DFF87B
:1044A000D48000F0F7F9D8F800301C4644BB294608
:1044B0003046FFF7BFFF431C044658D1D8F80040F0
:1044C0002746002F43D1002C4BD023683946304675
:1044D00004EB030900F032FA814542D121686D1ADC
:1044E00029463046FFF7A6FF01303AD023682B4417
:1044F0002360D8F800305A6862BBC8F800700FE03B
:104500002268521B20D40B2A17D96119A3422560B7
:1045100018BF5960636808BFC8F8001062514B604B
:10452000304600F0BDF904F10B00231D20F0070018
:10453000C21A1CBF1B1AA350AFE76268A3420CBF8C
:10454000C8F800205A60EBE723466468AEE73C46B3
:104550007F68B6E71A465B68A342FBD1002353602D
:10456000DEE70C233360304600F09AF994E70560EB
:10457000D6E700BF2C4F00202DE9F047164698469D
:104580008A680B69DDF820909342B8BF1346336008
:1045900091F8432007460C460AB101333360236883
:1045A000990642BF336802333360256815F006056B
:1045B00006D104F1190AE36832689B1AAB4226DC83
:1045C00094F843302268003B18BF012392062BD495
:1045D00004F1430241463846C84701301ED02368E3
:1045E000226903F00603042B02BFE5683368ED1A65
:1045F000A3680CBF25EAE57500259342C4BF9B1A4A
:10460000ED1800261A34B5421AD1002008E0012323
:10461000524641463846C847013003D14FF0FF307B
:10462000BDE8F0870135C6E7E1185A1C302081F853
:104630004300224494F8451082F843100233C7E740
:104640000123224641463846C8470130E6D00136AC
:10465000D9E700002DE9FF470F7E0C9E782F914689
:1046600080460C469A4601F1430207D8622F0AD8C9
:10467000002F00F0D280582F00F0B78004F14206DE
:1046800084F842703AE0A7F16303152BF6D801A134
:1046900051F823F0ED460008014700087D46000868
:1046A0007D4600087D4600087D4600080147000859
:1046B0007D4600087D4600087D4600087D460008CE
:1046C000014800082B470008B74700087D4600084E
:1046D0007D460008234800087D4600082B47000857
:1046E0007D4600087D460008BF47000833681A1D54
:1046F0001B68326004F1420684F8423001239DE0D9
:1047000033682068191D3160060601D51D6803E075
:104710004506FBD5B3F90050002D03DA2D236D4279
:1047200084F8433059480A2310E0216833680806AA
:1047300053F8045B02D4490648BFADB26F2F53480B
:10474000336059D10823002184F843106668A660BD
:10475000002E05DB21682E4321F0040121604DD09D
:104760001646B5FBF3F103FB1157C75D06F8017D53
:104770002F46BB420D46F4D9082B0BD12368DF0727
:1047800008D5236961689942DEBF302306F8013CF1
:1047900006F1FF36921B2261CDF800A04B4603AA1A
:1047A00021464046FFF7E8FE01304CD14FF0FF3084
:1047B00004B0BDE8F087236843F020032360344849
:1047C000782784F84570236831681F0651F8045B28
:1047D00002D45F0648BFADB23160D90744BF43F091
:1047E000200323601DB11023ADE72848E9E72368C3
:1047F00023F020032360F6E70A23A4E71646BBE76D
:10480000336825686169181D30602E061B6801D564
:10481000196002E06806FBD5198000232361164663
:10482000BAE733681A1D32601E686268002130469C
:10483000FBF7CEFC08B1801B606063682361002336
:1048400084F84330A8E72369324649464046D047BA
:104850000130ABD023689B0713D4E068039B9842D8
:10486000B8BF1846A4E70123324649464046D04720
:1048700001309BD00135E36803995B1AAB42F2DC4F
:10488000EBE7002504F11906F5E700BF254D000808
:10489000364D00080148FFF7B9BB00BF204F00208C
:1048A0000148FFF7B4BB00BF204F00202DE9F041C5
:1048B000074614460D4621B9BDE8F0411146FFF701
:1048C000DBBD2AB9FFF710FC25462846BDE8F0817C
:1048D00000F044F88442064602D8B4EB500FF4D8F6
:1048E00021463846FFF7C8FD804608B94546ECE743
:1048F000B4422246294628BF3246FFF7E7FB294645
:104900003846FFF7F1FBF1E7884210B501EB0204EE
:1049100002D98442234607D8431EA14207D011F88A
:10492000012B03F8012FF8E70244824200D110BDA9
:1049300013F8011D02F8011DF7E7000038B5064D18
:104940000023044608462B60FEF754FB431C02D1AB
:104950002B6803B1236038BD244F002051F8043C7C
:10496000181F002BBCBF0B58C01870472DE9F0472B
:10497000089D0F4604468C46002B48D18A421646B5
:1049800061D9B2FA82F34BB1C3F1200201FA03FC00
:1049900020FA02F29E4042EA0C0C9C404FEA164E6E
:1049A000B7B2BCFBFEF1220C0EFB11CC42EA0C426A
:1049B00001FB07F0904209D9B21801F1FF3C80F0E9
:1049C000EE80904240F2EB8002393244121AA4B2D7
:1049D000B2FBFEF00EFB102244EA024400FB07F794
:1049E000A74209D9341900F1FF3280F0DA80A742DA
:1049F00040F2D7803444023840EA0140E41B0021F1
:104A00001DB1DC400023C5E90043BDE8F0878B42BF
:104A100006D90DB1C5E9000100210846BDE8F087BF
:104A2000B3FA83F1002948D1BB4202D3824200F29B
:104A30000781841A67EB030201209446002DE4D01D
:104A4000C5E9004CE1E7002A00F09280B2FA82F357
:104A5000002B40F0A8808A1A4FEA164E1FFA86FCF7
:104A60000121200CB2FBFEF70EFB172240EA0242A6
:104A70000CFB07F0904207D9B21807F1FF3802D2B9
:104A8000904200F2E2804746121AA4B2B2FBFEF056
:104A90000EFB102244EA02440CFB00FCA44507D99B
:104AA000341900F1FF3202D2A44500F2CB80104647
:104AB000A4EB0C0440EA0740A2E7C1F120068B40BA
:104AC00022FA06FC4CEA030C07FA01F420FA06F37A
:104AD000F7404FEA1C49234300FA01F81FFA8CFE05
:104AE000B7FBF9F01C0C09FB107744EA074400FB04
:104AF0000EF7A74202FA01F20AD91CEB040400F1F6
:104B0000FF3A80F09B80A74240F2988002386444CC
:104B1000E41B9FB2B4FBF9F309FB134447EA0444D6
:104B200003FB0EFEA64509D91CEB040403F1FF3775
:104B300080F08280A6457FD9023B644443EA00406E
:104B4000A4EB0E04A0FB02E7BC427346B94663D354
:104B500060D05DB1B8EB030264EB090404FA06F619
:104B600022FA01F31E43CC40C5E9006400214CE762
:104B70006208480842EAC1710B0C43EA00438AB25A
:104B800042EA0342B3FBF6F1E407B4463746B646C1
:104B90001F23B0FBF6F0D21B41EA004161E76146FA
:104BA00014E7104628E7C3F1200120FA01F29E40E5
:104BB00027FA01F19F403A434FEA164E1FFA86FC4E
:104BC000B1FBFEF70EFB1710110C41EA004107FB89
:104BD0000CF8884504FA03F43AD9711807F1FF304C
:104BE00001D288451FD8A1EB0801B1FBFEF808FBF4
:104BF0000CF70EFB181192B242EA0142BA422FD2D0
:104C0000B21808F1FF31C6D2BA42C4D2A8F10201EB
:104C10003244C0E7F0459CD2BEEB020367EB0C07C1
:104C20000138B94695E7A6EB08084144B81EB1FB28
:104C3000FEF808FB0CF7DCE73B467FE7504667E7EA
:104C40000846FBE63444023832E7023F32441BE7B1
:104C5000A1EB08013846B1FBFEF808FB0CF7C8E7EA
:104C6000414698E7F8B500BFF8BC08BC9E467047BF
:0C4C7000F8B500BFF8BC08BC9E467047B9
:104C7C00256400007072696E744C43445F54617318
:104C8C006B00000064656661756C745461736B0035
:104C9C0049444C4500000000546D72510000000066
:104CAC00546D722053766300804C000800000000A5
:104CBC0000000000000000000000000000020000E6
:104CCC00180000000000000000000000904C0008DC
:104CDC0000000000000000000000000000000000C8
:104CEC00000200001800000000000000000000009E
:104CFC00000000000102030400000000000000009E
:104D0C000102030406070809232D302B2000686CD0
:104D1C004C006566674546470030313233343536D2
:104D2C00373839414243444546003031323334350B
:0C4D3C0036373839616263646566000038
:084D480088B4FF7F01000000A8
:044D5000C90200088C
:044D5400A5020008AC
:104D5800AAAAAAAA01000000100000000024F4007A
:104D68001400002000000000E84D0020504E0020F4
:104D7800B84E002000000000000000000000000005
:104D8800000000000000000000000000000000001B
:104D9800000000000000000000000000000000000B
:104DA80000000000000000000000000000000000FB
:0400000508003F119F
:00000001FF
